{
  "_format": "hh-sol-artifact-1",
  "contractName": "AgentBazaarRegistry",
  "sourceName": "contracts/AgentBazaarRegistry.sol",
  "abi": [
    {
      "anonymous": false,
      "inputs": [
        {
          "indexed": true,
          "internalType": "uint256",
          "name": "agentId",
          "type": "uint256"
        },
        {
          "indexed": true,
          "internalType": "address",
          "name": "owner",
          "type": "address"
        },
        {
          "indexed": false,
          "internalType": "string",
          "name": "name",
          "type": "string"
        },
        {
          "indexed": false,
          "internalType": "string",
          "name": "metadataCid",
          "type": "string"
        }
      ],
      "name": "AgentRegistered",
      "type": "event"
    },
    {
      "anonymous": false,
      "inputs": [
        {
          "indexed": true,
          "internalType": "uint256",
          "name": "agentId",
          "type": "uint256"
        },
        {
          "indexed": false,
          "internalType": "bool",
          "name": "active",
          "type": "bool"
        }
      ],
      "name": "AgentStatusChanged",
      "type": "event"
    },
    {
      "anonymous": false,
      "inputs": [
        {
          "indexed": true,
          "internalType": "uint256",
          "name": "agentId",
          "type": "uint256"
        },
        {
          "indexed": false,
          "internalType": "string",
          "name": "newMetadataCid",
          "type": "string"
        }
      ],
      "name": "MetadataUpdated",
      "type": "event"
    },
    {
      "inputs": [],
      "name": "agentCount",
      "outputs": [
        {
          "internalType": "uint256",
          "name": "",
          "type": "uint256"
        }
      ],
      "stateMutability": "view",
      "type": "function"
    },
    {
      "inputs": [
        {
          "internalType": "uint256",
          "name": "agentId",
          "type": "uint256"
        }
      ],
      "name": "agentExists",
      "outputs": [
        {
          "internalType": "bool",
          "name": "",
          "type": "bool"
        }
      ],
      "stateMutability": "view",
      "type": "function"
    },
    {
      "inputs": [
        {
          "internalType": "uint256",
          "name": "",
          "type": "uint256"
        }
      ],
      "name": "agents",
      "outputs": [
        {
          "internalType": "address",
          "name": "owner",
          "type": "address"
        },
        {
          "internalType": "string",
          "name": "name",
          "type": "string"
        },
        {
          "internalType": "string",
          "name": "metadataCid",
          "type": "string"
        },
        {
          "internalType": "uint256",
          "name": "createdAt",
          "type": "uint256"
        },
        {
          "internalType": "uint256",
          "name": "lastUpdatedAt",
          "type": "uint256"
        },
        {
          "internalType": "bool",
          "name": "active",
          "type": "bool"
        }
      ],
      "stateMutability": "view",
      "type": "function"
    },
    {
      "inputs": [
        {
          "internalType": "address",
          "name": "owner",
          "type": "address"
        }
      ],
      "name": "getAgentsByOwner",
      "outputs": [
        {
          "internalType": "uint256[]",
          "name": "",
          "type": "uint256[]"
        }
      ],
      "stateMutability": "view",
      "type": "function"
    },
    {
      "inputs": [
        {
          "internalType": "address",
          "name": "",
          "type": "address"
        },
        {
          "internalType": "uint256",
          "name": "",
          "type": "uint256"
        }
      ],
      "name": "ownerToAgents",
      "outputs": [
        {
          "internalType": "uint256",
          "name": "",
          "type": "uint256"
        }
      ],
      "stateMutability": "view",
      "type": "function"
    },
    {
      "inputs": [
        {
          "internalType": "string",
          "name": "name",
          "type": "string"
        },
        {
          "internalType": "string",
          "name": "metadataCid",
          "type": "string"
        }
      ],
      "name": "registerAgent",
      "outputs": [
        {
          "internalType": "uint256",
          "name": "",
          "type": "uint256"
        }
      ],
      "stateMutability": "nonpayable",
      "type": "function"
    },
    {
      "inputs": [
        {
          "internalType": "uint256",
          "name": "agentId",
          "type": "uint256"
        },
        {
          "internalType": "bool",
          "name": "active",
          "type": "bool"
        }
      ],
      "name": "setAgentStatus",
      "outputs": [],
      "stateMutability": "nonpayable",
      "type": "function"
    },
    {
      "inputs": [
        {
          "internalType": "uint256",
          "name": "agentId",
          "type": "uint256"
        },
        {
          "internalType": "string",
          "name": "newMetadataCid",
          "type": "string"
        }
      ],
      "name": "updateMetadata",
      "outputs": [],
      "stateMutability": "nonpayable",
      "type": "function"
    }
  ],
  "bytecode": "0x608060405234801561000f575f80fd5b50610bda8061001d5f395ff3fe608060405234801561000f575f80fd5b5060043610610085575f3560e01c806353c8388e1161005857806353c8388e14610109578063b7dc12841461011c578063de99f15714610124578063ff17aca414610158575f80fd5b806316b2d403146100895780631ab6f888146100af5780631bc51e7d146100cf578063513856c8146100e4575b5f80fd5b61009c610097366004610699565b61016b565b6040519081526020015b60405180910390f35b6100c26100bd3660046106c1565b610196565b6040516100a691906106e1565b6100e26100dd366004610724565b6101ff565b005b6100f76100f2366004610756565b6102bb565b6040516100a6969594939291906107b0565b6100e261011736600461084b565b61040b565b61009c5f5481565b610148610132366004610756565b5f90815260016020526040902060030154151590565b60405190151581526020016100a6565b61009c610166366004610893565b6104da565b6002602052815f5260405f208181548110610184575f80fd5b905f5260205f20015f91509150505481565b6001600160a01b0381165f908152600260209081526040918290208054835181840281018401909452808452606093928301828280156101f357602002820191905f5260205f20905b8154815260200190600101908083116101df575b50505050509050919050565b5f8281526001602052604090205482906001600160a01b031633146102615760405162461bcd60e51b81526020600482015260136024820152722737ba103a34329030b3b2b73a1037bbb732b960691b60448201526064015b60405180910390fd5b5f83815260016020908152604091829020600501805460ff1916851515908117909155915191825284917f5b7fa91ee392647b777096db0d386dc7cb7a3bfbc86ae6a10e0500de3a5ad02f910160405180910390a2505050565b600160208190525f9182526040909120805491810180546001600160a01b03909316926102e7906108fa565b80601f0160208091040260200160405190810160405280929190818152602001828054610313906108fa565b801561035e5780601f106103355761010080835404028352916020019161035e565b820191905f5260205f20905b81548152906001019060200180831161034157829003601f168201915b505050505090806002018054610373906108fa565b80601f016020809104026020016040519081016040528092919081815260200182805461039f906108fa565b80156103ea5780601f106103c1576101008083540402835291602001916103ea565b820191905f5260205f20905b8154815290600101906020018083116103cd57829003601f168201915b50505050600383015460048401546005909401549293909290915060ff1686565b5f8381526001602052604090205483906001600160a01b031633146104685760405162461bcd60e51b81526020600482015260136024820152722737ba103a34329030b3b2b73a1037bbb732b960691b6044820152606401610258565b5f848152600160205260409020600201610483838583610992565b505f8481526001602052604090819020426004909101555184907f459157ba24c7ab9878b165ef465fa6ae2ab42bcd8445f576be378768b0c47309906104cc9086908690610a74565b60405180910390a250505050565b5f805f8081546104e990610a8f565b91905081905590506040518060c00160405280336001600160a01b0316815260200187878080601f0160208091040260200160405190810160405280939291908181526020018383808284375f92019190915250505090825250604080516020601f8801819004810282018101909252868152918101919087908790819084018382808284375f9201829052509385525050426020808501829052604080860192909252600160609095018590528684528481529220845181546001600160a01b0319166001600160a01b039091161781559184015191928301916105cf915082610ab3565b50604082015160028201906105e49082610ab3565b50606082015160038201556080820151600482015560a0909101516005909101805460ff1916911515919091179055335f818152600260209081526040808320805460018101825590845291909220018390555182907f1fa075d34b5040b9bc683d1cc54ae270f345511dd00e1b9f68e82fd47b16f5249061066d908a908a908a908a90610b73565b60405180910390a395945050505050565b80356001600160a01b0381168114610694575f80fd5b919050565b5f80604083850312156106aa575f80fd5b6106b38361067e565b946020939093013593505050565b5f602082840312156106d1575f80fd5b6106da8261067e565b9392505050565b602080825282518282018190525f9190848201906040850190845b81811015610718578351835292840192918401916001016106fc565b50909695505050505050565b5f8060408385031215610735575f80fd5b823591506020830135801515811461074b575f80fd5b809150509250929050565b5f60208284031215610766575f80fd5b5035919050565b5f81518084525f5b8181101561079157602081850181015186830182015201610775565b505f602082860101526020601f19601f83011685010191505092915050565b6001600160a01b038716815260c0602082018190525f906107d39083018861076d565b82810360408401526107e5818861076d565b606084019690965250506080810192909252151560a0909101529392505050565b5f8083601f840112610816575f80fd5b50813567ffffffffffffffff81111561082d575f80fd5b602083019150836020828501011115610844575f80fd5b9250929050565b5f805f6040848603121561085d575f80fd5b83359250602084013567ffffffffffffffff81111561087a575f80fd5b61088686828701610806565b9497909650939450505050565b5f805f80604085870312156108a6575f80fd5b843567ffffffffffffffff808211156108bd575f80fd5b6108c988838901610806565b909650945060208701359150808211156108e1575f80fd5b506108ee87828801610806565b95989497509550505050565b600181811c9082168061090e57607f821691505b60208210810361092c57634e487b7160e01b5f52602260045260245ffd5b50919050565b634e487b7160e01b5f52604160045260245ffd5b601f82111561098d57805f5260205f20601f840160051c8101602085101561096b5750805b601f840160051c820191505b8181101561098a575f8155600101610977565b50505b505050565b67ffffffffffffffff8311156109aa576109aa610932565b6109be836109b883546108fa565b83610946565b5f601f8411600181146109ef575f85156109d85750838201355b5f19600387901b1c1916600186901b17835561098a565b5f83815260208120601f198716915b82811015610a1e57868501358255602094850194600190920191016109fe565b5086821015610a3a575f1960f88860031b161c19848701351681555b505060018560011b0183555050505050565b81835281816020850137505f828201602090810191909152601f909101601f19169091010190565b602081525f610a87602083018486610a4c565b949350505050565b5f60018201610aac57634e487b7160e01b5f52601160045260245ffd5b5060010190565b815167ffffffffffffffff811115610acd57610acd610932565b610ae181610adb84546108fa565b84610946565b602080601f831160018114610b14575f8415610afd5750858301515b5f19600386901b1c1916600185901b178555610b6b565b5f85815260208120601f198616915b82811015610b4257888601518255948401946001909101908401610b23565b5085821015610b5f57878501515f19600388901b60f8161c191681555b505060018460011b0185555b505050505050565b604081525f610b86604083018688610a4c565b8281036020840152610b99818587610a4c565b97965050505050505056fea2646970667358221220276cc6a553c7fcb482c751830d19f903bf23a96ce74d950810765e74414db42b64736f6c63430008180033",
  "linkReferences": {},
  "deployedLinkReferences": {}
}